{
  "contractName": "SimpleStorage",
  "abi": [
    {
      "inputs": [
        {
          "internalType": "uint256",
          "name": "initVal",
          "type": "uint256"
        }
      ],
      "stateMutability": "nonpayable",
      "type": "constructor"
    },
    {
      "inputs": [
        {
          "internalType": "uint256",
          "name": "x",
          "type": "uint256"
        }
      ],
      "name": "set",
      "outputs": [],
      "stateMutability": "nonpayable",
      "type": "function"
    },
    {
      "inputs": [],
      "name": "get",
      "outputs": [
        {
          "internalType": "uint256",
          "name": "",
          "type": "uint256"
        }
      ],
      "stateMutability": "view",
      "type": "function",
      "constant": true
    },
    {
      "inputs": [
        {
          "internalType": "uint256",
          "name": "x",
          "type": "uint256"
        }
      ],
      "name": "add",
      "outputs": [
        {
          "internalType": "uint256",
          "name": "",
          "type": "uint256"
        }
      ],
      "stateMutability": "nonpayable",
      "type": "function"
    }
  ],
  "bytecode": "0x608060405234801561001057600080fd5b506040516102d43803806102d483398181016040528101906100329190610054565b806000819055505061009e565b60008151905061004e81610087565b92915050565b60006020828403121561006657600080fd5b60006100748482850161003f565b91505092915050565b6000819050919050565b6100908161007d565b811461009b57600080fd5b50565b610227806100ad6000396000f3fe608060405234801561001057600080fd5b50600436106100415760003560e01c80631003e2d21461004657806360fe47b1146100765780636d4ce63c14610092575b600080fd5b610060600480360381019061005b91906100f8565b6100b0565b60405161006d9190610130565b60405180910390f35b610090600480360381019061008b91906100f8565b6100d0565b005b61009a6100da565b6040516100a79190610130565b60405180910390f35b6000816000546100c0919061014b565b6000819055506000549050919050565b8060008190555050565b60008054905090565b6000813590506100f2816101da565b92915050565b60006020828403121561010a57600080fd5b6000610118848285016100e3565b91505092915050565b61012a816101a1565b82525050565b60006020820190506101456000830184610121565b92915050565b6000610156826101a1565b9150610161836101a1565b9250827fffffffffffffffffffffffffffffffffffffffffffffffffffffffffffffffff03821115610196576101956101ab565b5b828201905092915050565b6000819050919050565b7f4e487b7100000000000000000000000000000000000000000000000000000000600052601160045260246000fd5b6101e3816101a1565b81146101ee57600080fd5b5056fea2646970667358221220a4147c36609e5aea05f9b28c463bc2b557f1971095c9e700b602e228612aaf3164736f6c63430008000033",
  "immutableReferences": {},
  "source": "// SPDX-License-Identifier: MIT\npragma solidity ^0.8.0;\n\ncontract SimpleStorage {\n    uint256 storedData;\n\n    constructor(uint256 initVal) {\n        storedData = initVal;\n    }\n\n    function set(uint256 x) public {\n        storedData = x;\n    }\n\n    function get() public view returns (uint256) {\n        return storedData;\n    }\n\n     function add(uint256 x) public returns (uint256) {\n        storedData = storedData + x;\n        return storedData;\n    }\n}\n",
  "sourcePath": "/home/dny4/work/tutorial/simple-storage-dapp/contracts/SimpleStorage.sol",
  "compiler": {
    "name": "solc",
    "version": "0.8.0+commit.c7dfd78e.Emscripten.clang"
  },
  "schemaVersion": "3.4.16",
  "updatedAt": "2025-04-29T03:45:00.603Z",
  "networkType": "ethereum",
  "devdoc": {
    "kind": "dev",
    "methods": {},
    "version": 1
  },
  "userdoc": {
    "kind": "user",
    "methods": {},
    "version": 1
  }
}